S01F00004C4D33352054656D70657261747572652053656E736F722E73726563BC
S11300000C942A000C9434000C9434000C943400A6
S11300100C9434000C9434000C9434000C9434008C
S11300200C9434000C9434000C9434000C9434007C
S11300300C9434000C9434000C9434000C9434006C
S11300400C9434000C9434000C9434000C9434005C
S11300500C94340011241FBECFE5D8E0DEBFCDBF21
S11300600E9436000C9443000C9400008FEF81BB77
S11300701ABA87E886B980EE87B9369A349BFECFE0
S10D008085B182BBFACFF894FFCFDC
S9030000FC
